{
  "contractName": "Musicc",
  "abi": [
    {
      "inputs": [
        {
          "internalType": "contract DappToken",
          "name": "_tokenContract",
          "type": "address"
        },
        {
          "internalType": "uint256",
          "name": "_tokenPrice",
          "type": "uint256"
        }
      ],
      "payable": false,
      "stateMutability": "nonpayable",
      "type": "constructor"
    },
    {
      "anonymous": false,
      "inputs": [
        {
          "indexed": false,
          "internalType": "uint256",
          "name": "id",
          "type": "uint256"
        },
        {
          "indexed": false,
          "internalType": "string",
          "name": "name",
          "type": "string"
        },
        {
          "indexed": false,
          "internalType": "uint256",
          "name": "price",
          "type": "uint256"
        },
        {
          "indexed": false,
          "internalType": "uint256",
          "name": "purchaseCount",
          "type": "uint256"
        },
        {
          "indexed": false,
          "internalType": "address payable",
          "name": "owner",
          "type": "address"
        },
        {
          "indexed": false,
          "internalType": "string",
          "name": "musicHash",
          "type": "string"
        },
        {
          "indexed": false,
          "internalType": "string",
          "name": "aesKey",
          "type": "string"
        }
      ],
      "name": "MusicAdded",
      "type": "event"
    },
    {
      "anonymous": false,
      "inputs": [
        {
          "indexed": false,
          "internalType": "uint256",
          "name": "id",
          "type": "uint256"
        },
        {
          "indexed": false,
          "internalType": "string",
          "name": "name",
          "type": "string"
        },
        {
          "indexed": false,
          "internalType": "uint256",
          "name": "price",
          "type": "uint256"
        },
        {
          "indexed": false,
          "internalType": "uint256",
          "name": "purchaseCount",
          "type": "uint256"
        },
        {
          "indexed": false,
          "internalType": "address payable",
          "name": "owner",
          "type": "address"
        },
        {
          "indexed": false,
          "internalType": "string",
          "name": "musicHash",
          "type": "string"
        },
        {
          "indexed": false,
          "internalType": "string",
          "name": "aesKey",
          "type": "string"
        }
      ],
      "name": "MusicPurchased",
      "type": "event"
    },
    {
      "anonymous": false,
      "inputs": [
        {
          "indexed": false,
          "internalType": "uint256",
          "name": "id",
          "type": "uint256"
        },
        {
          "indexed": false,
          "internalType": "string",
          "name": "name",
          "type": "string"
        },
        {
          "indexed": false,
          "internalType": "uint256",
          "name": "price",
          "type": "uint256"
        },
        {
          "indexed": false,
          "internalType": "uint256",
          "name": "purchaseCount",
          "type": "uint256"
        },
        {
          "indexed": false,
          "internalType": "address payable",
          "name": "owner",
          "type": "address"
        },
        {
          "indexed": false,
          "internalType": "string",
          "name": "musicHash",
          "type": "string"
        },
        {
          "indexed": false,
          "internalType": "string",
          "name": "aesKey",
          "type": "string"
        }
      ],
      "name": "MusicTipped",
      "type": "event"
    },
    {
      "constant": true,
      "inputs": [
        {
          "internalType": "uint256",
          "name": "",
          "type": "uint256"
        }
      ],
      "name": "music",
      "outputs": [
        {
          "internalType": "uint256",
          "name": "id",
          "type": "uint256"
        },
        {
          "internalType": "string",
          "name": "name",
          "type": "string"
        },
        {
          "internalType": "uint256",
          "name": "price",
          "type": "uint256"
        },
        {
          "internalType": "uint256",
          "name": "purchaseCount",
          "type": "uint256"
        },
        {
          "internalType": "address payable",
          "name": "owner",
          "type": "address"
        },
        {
          "internalType": "string",
          "name": "musicHash",
          "type": "string"
        },
        {
          "internalType": "string",
          "name": "aesKey",
          "type": "string"
        }
      ],
      "payable": false,
      "stateMutability": "view",
      "type": "function"
    },
    {
      "constant": true,
      "inputs": [],
      "name": "musicCount",
      "outputs": [
        {
          "internalType": "uint256",
          "name": "",
          "type": "uint256"
        }
      ],
      "payable": false,
      "stateMutability": "view",
      "type": "function"
    },
    {
      "constant": true,
      "inputs": [],
      "name": "name",
      "outputs": [
        {
          "internalType": "string",
          "name": "",
          "type": "string"
        }
      ],
      "payable": false,
      "stateMutability": "view",
      "type": "function"
    },
    {
      "constant": true,
      "inputs": [],
      "name": "tokenContract",
      "outputs": [
        {
          "internalType": "contract DappToken",
          "name": "",
          "type": "address"
        }
      ],
      "payable": false,
      "stateMutability": "view",
      "type": "function"
    },
    {
      "constant": true,
      "inputs": [],
      "name": "tokenPrice",
      "outputs": [
        {
          "internalType": "uint256",
          "name": "",
          "type": "uint256"
        }
      ],
      "payable": false,
      "stateMutability": "view",
      "type": "function"
    },
    {
      "constant": true,
      "inputs": [],
      "name": "tokensSold",
      "outputs": [
        {
          "internalType": "uint256",
          "name": "",
          "type": "uint256"
        }
      ],
      "payable": false,
      "stateMutability": "view",
      "type": "function"
    },
    {
      "constant": false,
      "inputs": [
        {
          "internalType": "string",
          "name": "_name",
          "type": "string"
        },
        {
          "internalType": "uint256",
          "name": "_price",
          "type": "uint256"
        },
        {
          "internalType": "string",
          "name": "_musicHash",
          "type": "string"
        },
        {
          "internalType": "string",
          "name": "_aesKey",
          "type": "string"
        }
      ],
      "name": "musicAdd",
      "outputs": [],
      "payable": false,
      "stateMutability": "nonpayable",
      "type": "function"
    },
    {
      "constant": false,
      "inputs": [
        {
          "internalType": "uint256",
          "name": "_id",
          "type": "uint256"
        }
      ],
      "name": "musicPurchase",
      "outputs": [],
      "payable": false,
      "stateMutability": "nonpayable",
      "type": "function"
    },
    {
      "constant": false,
      "inputs": [
        {
          "internalType": "uint256",
          "name": "_id",
          "type": "uint256"
        },
        {
          "internalType": "uint256",
          "name": "_tokenNumber",
          "type": "uint256"
        }
      ],
      "name": "musicTip",
      "outputs": [],
      "payable": false,
      "stateMutability": "nonpayable",
      "type": "function"
    }
  ],
  "bytecode": "0x608060405260006006553480156200001657600080fd5b5060405162001fc438038062001fc4833981810160405260408110156200003c57600080fd5b81019080805190602001909291908051906020019092919050505033600160006101000a81548173ffffffffffffffffffffffffffffffffffffffff021916908373ffffffffffffffffffffffffffffffffffffffff16021790555081600260006101000a81548173ffffffffffffffffffffffffffffffffffffffff021916908373ffffffffffffffffffffffffffffffffffffffff160217905550806003819055506040518060400160405280601181526020017f4d75736963204d61726b6574706c616365000000000000000000000000000000815250600090805190602001906200012d92919062000136565b505050620001e5565b828054600181600116156101000203166002900490600052602060002090601f016020900481019282601f106200017957805160ff1916838001178555620001aa565b82800160010185558215620001aa579182015b82811115620001a95782518255916020019190600101906200018c565b5b509050620001b99190620001bd565b5090565b620001e291905b80821115620001de576000816000905550600101620001c4565b5090565b90565b611dcf80620001f56000396000f3fe608060405234801561001057600080fd5b50600436106100935760003560e01c8063710452b011610066578063710452b0146101a15780637ff9b596146101d957806389f32940146101f75780639eb4766714610225578063d70bea32146103ec57610093565b806306fdde0314610098578063294f98b81461011b578063518ab2a81461013957806355a373d614610157575b600080fd5b6100a06105df565b6040518080602001828103825283818151815260200191508051906020019080838360005b838110156100e05780820151818401526020810190506100c5565b50505050905090810190601f16801561010d5780820380516001836020036101000a031916815260200191505b509250505060405180910390f35b61012361067d565b6040518082815260200191505060405180910390f35b610141610683565b6040518082815260200191505060405180910390f35b61015f610689565b604051808273ffffffffffffffffffffffffffffffffffffffff1673ffffffffffffffffffffffffffffffffffffffff16815260200191505060405180910390f35b6101d7600480360360408110156101b757600080fd5b8101908080359060200190929190803590602001909291905050506106af565b005b6101e1610dde565b6040518082815260200191505060405180910390f35b6102236004803603602081101561020d57600080fd5b8101908080359060200190929190505050610de4565b005b6102516004803603602081101561023b57600080fd5b810190808035906020019092919050505061170e565b60405180888152602001806020018781526020018681526020018573ffffffffffffffffffffffffffffffffffffffff1673ffffffffffffffffffffffffffffffffffffffff168152602001806020018060200184810384528a818151815260200191508051906020019080838360005b838110156102dd5780820151818401526020810190506102c2565b50505050905090810190601f16801561030a5780820380516001836020036101000a031916815260200191505b50848103835286818151815260200191508051906020019080838360005b83811015610343578082015181840152602081019050610328565b50505050905090810190601f1680156103705780820380516001836020036101000a031916815260200191505b50848103825285818151815260200191508051906020019080838360005b838110156103a957808201518184015260208101905061038e565b50505050905090810190601f1680156103d65780820380516001836020036101000a031916815260200191505b509a505050505050505050505060405180910390f35b6105dd6004803603608081101561040257600080fd5b810190808035906020019064010000000081111561041f57600080fd5b82018360208201111561043157600080fd5b8035906020019184600183028401116401000000008311171561045357600080fd5b91908080601f016020809104026020016040519081016040528093929190818152602001838380828437600081840152601f19601f82011690508083019250505050505050919291929080359060200190929190803590602001906401000000008111156104c057600080fd5b8201836020820111156104d257600080fd5b803590602001918460018302840111640100000000831117156104f457600080fd5b91908080601f016020809104026020016040519081016040528093929190818152602001838380828437600081840152601f19601f8201169050808301925050505050505091929192908035906020019064010000000081111561055757600080fd5b82018360208201111561056957600080fd5b8035906020019184600183028401116401000000008311171561058b57600080fd5b91908080601f016020809104026020016040519081016040528093929190818152602001838380828437600081840152601f19601f820116905080830192505050505050509192919290505050611938565b005b60008054600181600116156101000203166002900480601f0160208091040260200160405190810160405280929190818152602001828054600181600116156101000203166002900480156106755780601f1061064a57610100808354040283529160200191610675565b820191906000526020600020905b81548152906001019060200180831161065857829003601f168201915b505050505081565b60065481565b60045481565b600260009054906101000a900473ffffffffffffffffffffffffffffffffffffffff1681565b6106b7611c50565b600760008481526020019081526020016000206040518060e001604052908160008201548152602001600182018054600181600116156101000203166002900480601f0160208091040260200160405190810160405280929190818152602001828054600181600116156101000203166002900480156107785780601f1061074d57610100808354040283529160200191610778565b820191906000526020600020905b81548152906001019060200180831161075b57829003601f168201915b5050505050815260200160028201548152602001600382015481526020016004820160009054906101000a900473ffffffffffffffffffffffffffffffffffffffff1673ffffffffffffffffffffffffffffffffffffffff1673ffffffffffffffffffffffffffffffffffffffff168152602001600582018054600181600116156101000203166002900480601f0160208091040260200160405190810160405280929190818152602001828054600181600116156101000203166002900480156108845780601f1061085957610100808354040283529160200191610884565b820191906000526020600020905b81548152906001019060200180831161086757829003601f168201915b50505050508152602001600682018054600181600116156101000203166002900480601f0160208091040260200160405190810160405280929190818152602001828054600181600116156101000203166002900480156109265780601f106108fb57610100808354040283529160200191610926565b820191906000526020600020905b81548152906001019060200180831161090957829003601f168201915b5050505050815250509050600081608001519050600082600001511180156109545750600654826000015111155b61095d57600080fd5b82600260009054906101000a900473ffffffffffffffffffffffffffffffffffffffff1673ffffffffffffffffffffffffffffffffffffffff166370a08231336040518263ffffffff1660e01b8152600401808273ffffffffffffffffffffffffffffffffffffffff1673ffffffffffffffffffffffffffffffffffffffff16815260200191505060206040518083038186803b1580156109fd57600080fd5b505afa158015610a11573d6000803e3d6000fd5b505050506040513d6020811015610a2757600080fd5b81019080805190602001909291905050501015610a8f576040517f08c379a0000000000000000000000000000000000000000000000000000000008152600401808060200182810382526021815260200180611d496021913960400191505060405180910390fd5b600260009054906101000a900473ffffffffffffffffffffffffffffffffffffffff1673ffffffffffffffffffffffffffffffffffffffff1663dbba0f018285336040518463ffffffff1660e01b8152600401808473ffffffffffffffffffffffffffffffffffffffff1673ffffffffffffffffffffffffffffffffffffffff1681526020018381526020018273ffffffffffffffffffffffffffffffffffffffff1673ffffffffffffffffffffffffffffffffffffffff1681526020019350505050602060405180830381600087803b158015610b6c57600080fd5b505af1158015610b80573d6000803e3d6000fd5b505050506040513d6020811015610b9657600080fd5b8101908080519060200190929190505050610bfc576040517f08c379a0000000000000000000000000000000000000000000000000000000008152600401808060200182810382526031815260200180611d6a6031913960400191505060405180910390fd5b7f664a9e0036c7e7f8ff1764a60bafb7902d2072b08ca445295d6aa6ff88cf035960065483602001518460400151856060015186608001518760a001518860c0015160405180888152602001806020018781526020018681526020018573ffffffffffffffffffffffffffffffffffffffff1673ffffffffffffffffffffffffffffffffffffffff168152602001806020018060200184810384528a818151815260200191508051906020019080838360005b83811015610cca578082015181840152602081019050610caf565b50505050905090810190601f168015610cf75780820380516001836020036101000a031916815260200191505b50848103835286818151815260200191508051906020019080838360005b83811015610d30578082015181840152602081019050610d15565b50505050905090810190601f168015610d5d5780820380516001836020036101000a031916815260200191505b50848103825285818151815260200191508051906020019080838360005b83811015610d96578082015181840152602081019050610d7b565b50505050905090810190601f168015610dc35780820380516001836020036101000a031916815260200191505b509a505050505050505050505060405180910390a150505050565b60035481565b610dec611c50565b600760008381526020019081526020016000206040518060e001604052908160008201548152602001600182018054600181600116156101000203166002900480601f016020809104026020016040519081016040528092919081815260200182805460018160011615610100020316600290048015610ead5780601f10610e8257610100808354040283529160200191610ead565b820191906000526020600020905b815481529060010190602001808311610e9057829003601f168201915b5050505050815260200160028201548152602001600382015481526020016004820160009054906101000a900473ffffffffffffffffffffffffffffffffffffffff1673ffffffffffffffffffffffffffffffffffffffff1673ffffffffffffffffffffffffffffffffffffffff168152602001600582018054600181600116156101000203166002900480601f016020809104026020016040519081016040528092919081815260200182805460018160011615610100020316600290048015610fb95780601f10610f8e57610100808354040283529160200191610fb9565b820191906000526020600020905b815481529060010190602001808311610f9c57829003601f168201915b50505050508152602001600682018054600181600116156101000203166002900480601f01602080910402602001604051908101604052809291908181526020018280546001816001161561010002031660029004801561105b5780601f106110305761010080835404028352916020019161105b565b820191906000526020600020905b81548152906001019060200180831161103e57829003601f168201915b5050505050815250509050600081608001519050600082600001511180156110895750600654826000015111155b6110fb576040517f08c379a00000000000000000000000000000000000000000000000000000000081526004018080602001828103825260148152602001807f70726f64756374206973206e6f742076616c696400000000000000000000000081525060200191505060405180910390fd5b8160400151600260009054906101000a900473ffffffffffffffffffffffffffffffffffffffff1673ffffffffffffffffffffffffffffffffffffffff166370a08231336040518263ffffffff1660e01b8152600401808273ffffffffffffffffffffffffffffffffffffffff1673ffffffffffffffffffffffffffffffffffffffff16815260200191505060206040518083038186803b15801561119f57600080fd5b505afa1580156111b3573d6000803e3d6000fd5b505050506040513d60208110156111c957600080fd5b81019080805190602001909291905050501015611231576040517f08c379a0000000000000000000000000000000000000000000000000000000008152600401808060200182810382526021815260200180611d496021913960400191505060405180910390fd5b3373ffffffffffffffffffffffffffffffffffffffff168173ffffffffffffffffffffffffffffffffffffffff1614156112d3576040517f08c379a000000000000000000000000000000000000000000000000000000000815260040180806020018281038252601a8152602001807f62757965722063616e6e6f74206265207468652073656c6c657200000000000081525060200191505060405180910390fd5b600082604001519050600260009054906101000a900473ffffffffffffffffffffffffffffffffffffffff1673ffffffffffffffffffffffffffffffffffffffff1663dbba0f018383336040518463ffffffff1660e01b8152600401808473ffffffffffffffffffffffffffffffffffffffff1673ffffffffffffffffffffffffffffffffffffffff1681526020018381526020018273ffffffffffffffffffffffffffffffffffffffff1673ffffffffffffffffffffffffffffffffffffffff1681526020019350505050602060405180830381600087803b1580156113b957600080fd5b505af11580156113cd573d6000803e3d6000fd5b505050506040513d60208110156113e357600080fd5b8101908080519060200190929190505050611449576040517f08c379a0000000000000000000000000000000000000000000000000000000008152600401808060200182810382526031815260200180611d6a6031913960400191505060405180910390fd5b826060018051809190600101815250508260076000868152602001908152602001600020600082015181600001556020820151816001019080519060200190611493929190611ca3565b50604082015181600201556060820151816003015560808201518160040160006101000a81548173ffffffffffffffffffffffffffffffffffffffff021916908373ffffffffffffffffffffffffffffffffffffffff16021790555060a082015181600501908051906020019061150b929190611ca3565b5060c0820151816006019080519060200190611528929190611ca3565b509050507f948a4891f13bfbd5abf7a2471de3565d24307fdec07fcabc322ceb42d63a024960065484602001518560400151866060015187608001518860a001518960c0015160405180888152602001806020018781526020018681526020018573ffffffffffffffffffffffffffffffffffffffff1673ffffffffffffffffffffffffffffffffffffffff168152602001806020018060200184810384528a818151815260200191508051906020019080838360005b838110156115fa5780820151818401526020810190506115df565b50505050905090810190601f1680156116275780820380516001836020036101000a031916815260200191505b50848103835286818151815260200191508051906020019080838360005b83811015611660578082015181840152602081019050611645565b50505050905090810190601f16801561168d5780820380516001836020036101000a031916815260200191505b50848103825285818151815260200191508051906020019080838360005b838110156116c65780820151818401526020810190506116ab565b50505050905090810190601f1680156116f35780820380516001836020036101000a031916815260200191505b509a505050505050505050505060405180910390a150505050565b6007602052806000526040600020600091509050806000015490806001018054600181600116156101000203166002900480601f0160208091040260200160405190810160405280929190818152602001828054600181600116156101000203166002900480156117c05780601f10611795576101008083540402835291602001916117c0565b820191906000526020600020905b8154815290600101906020018083116117a357829003601f168201915b5050505050908060020154908060030154908060040160009054906101000a900473ffffffffffffffffffffffffffffffffffffffff1690806005018054600181600116156101000203166002900480601f0160208091040260200160405190810160405280929190818152602001828054600181600116156101000203166002900480156118905780601f1061186557610100808354040283529160200191611890565b820191906000526020600020905b81548152906001019060200180831161187357829003601f168201915b505050505090806006018054600181600116156101000203166002900480601f01602080910402602001604051908101604052809291908181526020018280546001816001161561010002031660029004801561192e5780601f106119035761010080835404028352916020019161192e565b820191906000526020600020905b81548152906001019060200180831161191157829003601f168201915b5050505050905087565b600084511161194657600080fd5b6000831161195357600080fd5b6006600081548092919060010191905055506040518060e001604052806006548152602001858152602001848152602001600081526020013373ffffffffffffffffffffffffffffffffffffffff168152602001838152602001828152506007600060065481526020019081526020016000206000820151816000015560208201518160010190805190602001906119ec929190611ca3565b50604082015181600201556060820151816003015560808201518160040160006101000a81548173ffffffffffffffffffffffffffffffffffffffff021916908373ffffffffffffffffffffffffffffffffffffffff16021790555060a0820151816005019080519060200190611a64929190611ca3565b5060c0820151816006019080519060200190611a81929190611ca3565b509050507f6c518cfc397a82aa5819742e408a525fe8d3e3ee18418fef7eb2cfdfd6dcfe626006548585600033878760405180888152602001806020018781526020018681526020018573ffffffffffffffffffffffffffffffffffffffff1673ffffffffffffffffffffffffffffffffffffffff168152602001806020018060200184810384528a818151815260200191508051906020019080838360005b83811015611b3c578082015181840152602081019050611b21565b50505050905090810190601f168015611b695780820380516001836020036101000a031916815260200191505b50848103835286818151815260200191508051906020019080838360005b83811015611ba2578082015181840152602081019050611b87565b50505050905090810190601f168015611bcf5780820380516001836020036101000a031916815260200191505b50848103825285818151815260200191508051906020019080838360005b83811015611c08578082015181840152602081019050611bed565b50505050905090810190601f168015611c355780820380516001836020036101000a031916815260200191505b509a505050505050505050505060405180910390a150505050565b6040518060e0016040528060008152602001606081526020016000815260200160008152602001600073ffffffffffffffffffffffffffffffffffffffff16815260200160608152602001606081525090565b828054600181600116156101000203166002900490600052602060002090601f016020900481019282601f10611ce457805160ff1916838001178555611d12565b82800160010185558215611d12579182015b82811115611d11578251825591602001919060010190611cf6565b5b509050611d1f9190611d23565b5090565b611d4591905b80821115611d41576000816000905550600101611d29565b5090565b9056fe6d73672e73656e6465722068617320696e73756666696369656e7420746f6b656e756e61626c6520746f2063616c6c207472616e73666572206675636e74696f6e206f6620746f6b656e636f6e7472616374a265627a7a7231582049e8d4bd1e4f9dde773670e6363627ba45919e14eed1bcd1ac92e721aabb731f64736f6c63430005100032",
  "source": "pragma solidity 0.5.16;\r\n\r\nimport './DappToken.sol';\r\n\r\ncontract Musicc {\r\n    \r\n    string public name;\r\n    address admin;\r\n    DappToken public tokenContract;\r\n    uint256 public tokenPrice;\r\n    uint256 public tokensSold;\r\n    address currentContract;\r\n    uint public musicCount = 0;\r\n    mapping(uint => Music) public music;\r\n\r\n    struct Music\r\n    {\r\n        uint id;\r\n        string name;\r\n        uint price;\r\n        uint purchaseCount;\r\n        address payable owner;\r\n        string musicHash;\r\n        string aesKey;\r\n    }\r\n\r\n    //events are created to make sure that receipts are obtained after a txn is completed.\r\n    event MusicAdded\r\n    (\r\n        uint id,\r\n        string name,\r\n        uint price,\r\n        uint purchaseCount,\r\n        address payable owner,\r\n        string musicHash,\r\n        string aesKey\r\n       \r\n    );\r\n\r\n     event MusicPurchased\r\n    (\r\n        uint id,\r\n        string name,\r\n        uint price,\r\n        uint purchaseCount,\r\n        address payable owner,\r\n        string musicHash,\r\n        string aesKey\r\n       \r\n    );\r\n\r\n    event MusicTipped\r\n    (\r\n        uint id,\r\n        string name,\r\n        uint price,\r\n        uint purchaseCount,\r\n        address payable owner,\r\n        string musicHash,\r\n        string aesKey\r\n       \r\n    );\r\n\r\n    // event Sent(address t0, address from, uint value);\r\n\r\n    \r\n    constructor(DappToken _tokenContract, uint256 _tokenPrice) public{\r\n        admin = msg.sender;\r\n        tokenContract = _tokenContract;\r\n        tokenPrice = _tokenPrice;\r\n        name = \"Music Marketplace\";\r\n    } \r\n\r\n    function musicAdd(string memory _name, uint _price, string memory _musicHash, string memory _aesKey) public\r\n    {\r\n        //Require valid name\r\n        require(bytes(_name).length > 0);\r\n        //Require valid price\r\n        require(_price > 0);\r\n        //Increment productCount\r\n        musicCount ++;\r\n        //Create the product\r\n        music[musicCount] = Music(musicCount, _name, _price, 0, msg.sender,  _musicHash, _aesKey);\r\n        //Trigger an event\r\n        emit MusicAdded(musicCount, _name, _price, 0,  msg.sender, _musicHash, _aesKey);\r\n    }\r\n\r\n    function musicPurchase(uint _id) public \r\n    {\r\n        //fetch product\r\n        //memory space is being used to store copy of said product i.e copy of products[_id]\r\n        Music memory _product = music[_id];\r\n\r\n        //fetch owner\r\n        address payable _seller = _product.owner;\r\n\r\n        //check if product has valid id\r\n        require(_product.id >0 && _product.id <= musicCount, 'product is not valid');\r\n\r\n        //check if there is enough ether\r\n        // require(msg.value >= _product.price);\r\n\r\n        //check is there is enough token of the msg.sender\r\n        require(tokenContract.balanceOf(msg.sender) >= _product.price, 'msg.sender has insufficient token');\r\n\r\n        //check if the buyer is not the seller\r\n        require(_seller != msg.sender, 'buyer cannot be the seller');\r\n\r\n        uint256 _tokenPrice = _product.price;\r\n        //pay the seller by sending ether\r\n        //address(_seller).transfer(msg.value);\r\n\r\n        //pay the seller by calling the transfer fucntion in Dapptoken.sol\r\n        require(tokenContract.transfer(_seller, _tokenPrice, msg.sender), 'unable to call transfer fucntion of tokencontract');\r\n\r\n         //increment purchaseCount\r\n        _product.purchaseCount++; \r\n\r\n        //update product\r\n        music[_id] = _product;\r\n\r\n        //trigger an event \r\n        emit MusicPurchased(musicCount, _product.name, _product.price, _product.purchaseCount, _product.owner , _product.musicHash, _product.aesKey);\r\n    }\r\n\r\n    // function sendToken(address _to, uint256 _value, address _from) public {\r\n    //     require(tokenContract.transfer(_to, _value, _from));\r\n    //     // emit Sent(_to, _from, _value);\r\n    // }\r\n\r\n    function musicTip(uint _id, uint256 _tokenNumber) public \r\n    {\r\n        //fetch product\r\n        Music memory _product = music[_id];\r\n        \r\n        //fetch owner\r\n        address payable _seller = _product.owner;\r\n\r\n        //check if product is valid\r\n        require(_product.id >0 && _product.id <= musicCount);\r\n\r\n        //check if user has enough selected ether\r\n        // require(msg.value ==  _price);\r\n\r\n        //check is there is enough token of the msg.sender\r\n        require(tokenContract.balanceOf(msg.sender) >= _tokenNumber, 'msg.sender has insufficient token');\r\n\r\n        //pay the seller by sending ether\r\n        // address(_seller).transfer(msg.value);\r\n\r\n        //pay the seller by tranfering token\r\n         require(tokenContract.transfer(_seller, _tokenNumber, msg.sender), 'unable to call transfer fucntion of tokencontract');\r\n\r\n        //trigger an event\r\n        emit MusicTipped(musicCount, _product.name, _product.price, _product.purchaseCount, _product.owner , _product.musicHash, _product.aesKey);\r\n\r\n    }\r\n}",
  "sourcePath": "C:\\Users\\user\\Desktop\\IPFSmPlaceSandbox\\src\\contracts\\Music.sol",
  "compiler": {
    "name": "solc",
    "version": "0.5.16+commit.9c3226ce.Emscripten.clang"
  },
  "schemaVersion": "3.0.23",
  "updatedAt": "2020-07-19T13:45:10.530Z",
  "networkType": "ethereum",
  "devdoc": {
    "methods": {}
  },
  "userdoc": {
    "methods": {}
  }
}